{
  "_format": "hh-sol-artifact-1",
  "contractName": "JNFT",
  "sourceName": "contracts/JNFT.sol",
  "abi": [
    {
      "inputs": [
        {
          "internalType": "string",
          "name": "name_",
          "type": "string"
        },
        {
          "internalType": "string",
          "name": "symbol_",
          "type": "string"
        }
      ],
      "stateMutability": "nonpayable",
      "type": "constructor"
    },
    {
      "anonymous": false,
      "inputs": [
        {
          "indexed": true,
          "internalType": "address",
          "name": "owner",
          "type": "address"
        },
        {
          "indexed": true,
          "internalType": "address",
          "name": "approved",
          "type": "address"
        },
        {
          "indexed": true,
          "internalType": "uint256",
          "name": "tokenId",
          "type": "uint256"
        }
      ],
      "name": "Approval",
      "type": "event"
    },
    {
      "anonymous": false,
      "inputs": [
        {
          "indexed": true,
          "internalType": "address",
          "name": "owner",
          "type": "address"
        },
        {
          "indexed": true,
          "internalType": "address",
          "name": "operator",
          "type": "address"
        },
        {
          "indexed": false,
          "internalType": "bool",
          "name": "approved",
          "type": "bool"
        }
      ],
      "name": "ApprovalForAll",
      "type": "event"
    },
    {
      "anonymous": false,
      "inputs": [
        {
          "indexed": true,
          "internalType": "address",
          "name": "from",
          "type": "address"
        },
        {
          "indexed": true,
          "internalType": "address",
          "name": "to",
          "type": "address"
        },
        {
          "indexed": true,
          "internalType": "uint256",
          "name": "tokenId",
          "type": "uint256"
        }
      ],
      "name": "Transfer",
      "type": "event"
    },
    {
      "anonymous": false,
      "inputs": [
        {
          "indexed": false,
          "internalType": "uint256",
          "name": "currentId",
          "type": "uint256"
        }
      ],
      "name": "showcurrentID",
      "type": "event"
    },
    {
      "inputs": [
        {
          "internalType": "address",
          "name": "to",
          "type": "address"
        },
        {
          "internalType": "uint256",
          "name": "tokenId",
          "type": "uint256"
        }
      ],
      "name": "approve",
      "outputs": [],
      "stateMutability": "nonpayable",
      "type": "function"
    },
    {
      "inputs": [
        {
          "internalType": "address",
          "name": "owner",
          "type": "address"
        }
      ],
      "name": "balanceOf",
      "outputs": [
        {
          "internalType": "uint256",
          "name": "",
          "type": "uint256"
        }
      ],
      "stateMutability": "view",
      "type": "function"
    },
    {
      "inputs": [
        {
          "internalType": "uint256",
          "name": "tokenId",
          "type": "uint256"
        }
      ],
      "name": "getApproved",
      "outputs": [
        {
          "internalType": "address",
          "name": "",
          "type": "address"
        }
      ],
      "stateMutability": "view",
      "type": "function"
    },
    {
      "inputs": [
        {
          "internalType": "address",
          "name": "owner",
          "type": "address"
        },
        {
          "internalType": "address",
          "name": "operator",
          "type": "address"
        }
      ],
      "name": "isApprovedForAll",
      "outputs": [
        {
          "internalType": "bool",
          "name": "",
          "type": "bool"
        }
      ],
      "stateMutability": "view",
      "type": "function"
    },
    {
      "inputs": [
        {
          "internalType": "address",
          "name": "to",
          "type": "address"
        },
        {
          "internalType": "string",
          "name": "tokenURI",
          "type": "string"
        }
      ],
      "name": "mint",
      "outputs": [
        {
          "internalType": "uint256",
          "name": "",
          "type": "uint256"
        }
      ],
      "stateMutability": "nonpayable",
      "type": "function"
    },
    {
      "inputs": [],
      "name": "name",
      "outputs": [
        {
          "internalType": "string",
          "name": "",
          "type": "string"
        }
      ],
      "stateMutability": "view",
      "type": "function"
    },
    {
      "inputs": [
        {
          "internalType": "uint256",
          "name": "tokenId",
          "type": "uint256"
        }
      ],
      "name": "ownerOf",
      "outputs": [
        {
          "internalType": "address",
          "name": "",
          "type": "address"
        }
      ],
      "stateMutability": "view",
      "type": "function"
    },
    {
      "inputs": [
        {
          "internalType": "address",
          "name": "from",
          "type": "address"
        },
        {
          "internalType": "address",
          "name": "to",
          "type": "address"
        },
        {
          "internalType": "uint256",
          "name": "tokenId",
          "type": "uint256"
        }
      ],
      "name": "safeTransferFrom",
      "outputs": [],
      "stateMutability": "nonpayable",
      "type": "function"
    },
    {
      "inputs": [
        {
          "internalType": "address",
          "name": "from",
          "type": "address"
        },
        {
          "internalType": "address",
          "name": "to",
          "type": "address"
        },
        {
          "internalType": "uint256",
          "name": "tokenId",
          "type": "uint256"
        },
        {
          "internalType": "bytes",
          "name": "data",
          "type": "bytes"
        }
      ],
      "name": "safeTransferFrom",
      "outputs": [],
      "stateMutability": "nonpayable",
      "type": "function"
    },
    {
      "inputs": [
        {
          "internalType": "address",
          "name": "operator",
          "type": "address"
        },
        {
          "internalType": "bool",
          "name": "approved",
          "type": "bool"
        }
      ],
      "name": "setApprovalForAll",
      "outputs": [],
      "stateMutability": "nonpayable",
      "type": "function"
    },
    {
      "inputs": [
        {
          "internalType": "bytes4",
          "name": "interfaceId",
          "type": "bytes4"
        }
      ],
      "name": "supportsInterface",
      "outputs": [
        {
          "internalType": "bool",
          "name": "",
          "type": "bool"
        }
      ],
      "stateMutability": "view",
      "type": "function"
    },
    {
      "inputs": [],
      "name": "symbol",
      "outputs": [
        {
          "internalType": "string",
          "name": "",
          "type": "string"
        }
      ],
      "stateMutability": "view",
      "type": "function"
    },
    {
      "inputs": [
        {
          "internalType": "uint256",
          "name": "tokenId",
          "type": "uint256"
        }
      ],
      "name": "tokenURI",
      "outputs": [
        {
          "internalType": "string",
          "name": "",
          "type": "string"
        }
      ],
      "stateMutability": "view",
      "type": "function"
    },
    {
      "inputs": [
        {
          "internalType": "address",
          "name": "from",
          "type": "address"
        },
        {
          "internalType": "address",
          "name": "to",
          "type": "address"
        },
        {
          "internalType": "uint256",
          "name": "tokenId",
          "type": "uint256"
        }
      ],
      "name": "transferFrom",
      "outputs": [],
      "stateMutability": "nonpayable",
      "type": "function"
    }
  ],
  "bytecode": "0x60806040523480156200001157600080fd5b506040516200319b3803806200319b833981810160405281019062000037919062000252565b818181600090816200004a919062000522565b5080600190816200005c919062000522565b5050506200006f620000b760201b60201c565b600860006101000a81548173ffffffffffffffffffffffffffffffffffffffff021916908373ffffffffffffffffffffffffffffffffffffffff160217905550505062000609565b600033905090565b6000604051905090565b600080fd5b600080fd5b600080fd5b600080fd5b6000601f19601f8301169050919050565b7f4e487b7100000000000000000000000000000000000000000000000000000000600052604160045260246000fd5b6200012882620000dd565b810181811067ffffffffffffffff821117156200014a5762000149620000ee565b5b80604052505050565b60006200015f620000bf565b90506200016d82826200011d565b919050565b600067ffffffffffffffff82111562000190576200018f620000ee565b5b6200019b82620000dd565b9050602081019050919050565b60005b83811015620001c8578082015181840152602081019050620001ab565b60008484015250505050565b6000620001eb620001e58462000172565b62000153565b9050828152602081018484840111156200020a5762000209620000d8565b5b62000217848285620001a8565b509392505050565b600082601f830112620002375762000236620000d3565b5b815162000249848260208601620001d4565b91505092915050565b600080604083850312156200026c576200026b620000c9565b5b600083015167ffffffffffffffff8111156200028d576200028c620000ce565b5b6200029b858286016200021f565b925050602083015167ffffffffffffffff811115620002bf57620002be620000ce565b5b620002cd858286016200021f565b9150509250929050565b600081519050919050565b7f4e487b7100000000000000000000000000000000000000000000000000000000600052602260045260246000fd5b600060028204905060018216806200032a57607f821691505b60208210810362000340576200033f620002e2565b5b50919050565b60008190508160005260206000209050919050565b60006020601f8301049050919050565b600082821b905092915050565b600060088302620003aa7fffffffffffffffffffffffffffffffffffffffffffffffffffffffffffffffff826200036b565b620003b686836200036b565b95508019841693508086168417925050509392505050565b6000819050919050565b6000819050919050565b600062000403620003fd620003f784620003ce565b620003d8565b620003ce565b9050919050565b6000819050919050565b6200041f83620003e2565b620004376200042e826200040a565b84845462000378565b825550505050565b600090565b6200044e6200043f565b6200045b81848462000414565b505050565b5b8181101562000483576200047760008262000444565b60018101905062000461565b5050565b601f821115620004d2576200049c8162000346565b620004a7846200035b565b81016020851015620004b7578190505b620004cf620004c6856200035b565b83018262000460565b50505b505050565b600082821c905092915050565b6000620004f760001984600802620004d7565b1980831691505092915050565b6000620005128383620004e4565b9150826002028217905092915050565b6200052d82620002d7565b67ffffffffffffffff811115620005495762000548620000ee565b5b62000555825462000311565b6200056282828562000487565b600060209050601f8311600181146200059a576000841562000585578287015190505b62000591858262000504565b86555062000601565b601f198416620005aa8662000346565b60005b82811015620005d457848901518255600182019150602085019450602081019050620005ad565b86831015620005f45784890151620005f0601f891682620004e4565b8355505b6001600288020188555050505b505050505050565b612b8280620006196000396000f3fe608060405234801561001057600080fd5b50600436106100ea5760003560e01c806370a082311161008c578063b88d4fde11610066578063b88d4fde1461025b578063c87b56dd14610277578063d0def521146102a7578063e985e9c5146102d7576100ea565b806370a08231146101f157806395d89b4114610221578063a22cb4651461023f576100ea565b8063095ea7b3116100c8578063095ea7b31461016d57806323b872dd1461018957806342842e0e146101a55780636352211e146101c1576100ea565b806301ffc9a7146100ef57806306fdde031461011f578063081812fc1461013d575b600080fd5b61010960048036038101906101049190611a05565b610307565b6040516101169190611a4d565b60405180910390f35b6101276103e9565b6040516101349190611af8565b60405180910390f35b61015760048036038101906101529190611b50565b61047b565b6040516101649190611bbe565b60405180910390f35b61018760048036038101906101829190611c05565b6104c1565b005b6101a3600480360381019061019e9190611c45565b6105d8565b005b6101bf60048036038101906101ba9190611c45565b610638565b005b6101db60048036038101906101d69190611b50565b610658565b6040516101e89190611bbe565b60405180910390f35b61020b60048036038101906102069190611c98565b6106de565b6040516102189190611cd4565b60405180910390f35b610229610795565b6040516102369190611af8565b60405180910390f35b61025960048036038101906102549190611d1b565b610827565b005b61027560048036038101906102709190611e90565b61083d565b005b610291600480360381019061028c9190611b50565b61089f565b60405161029e9190611af8565b60405180910390f35b6102c160048036038101906102bc9190611fb4565b6109b1565b6040516102ce9190611cd4565b60405180910390f35b6102f160048036038101906102ec9190612010565b610ab7565b6040516102fe9190611a4d565b60405180910390f35b60007f80ac58cd000000000000000000000000000000000000000000000000000000007bffffffffffffffffffffffffffffffffffffffffffffffffffffffff1916827bffffffffffffffffffffffffffffffffffffffffffffffffffffffff191614806103d257507f5b5e139f000000000000000000000000000000000000000000000000000000007bffffffffffffffffffffffffffffffffffffffffffffffffffffffff1916827bffffffffffffffffffffffffffffffffffffffffffffffffffffffff1916145b806103e257506103e182610b4b565b5b9050919050565b6060600080546103f89061207f565b80601f01602080910402602001604051908101604052809291908181526020018280546104249061207f565b80156104715780601f1061044657610100808354040283529160200191610471565b820191906000526020600020905b81548152906001019060200180831161045457829003601f168201915b5050505050905090565b600061048682610bb5565b6004600083815260200190815260200160002060009054906101000a900473ffffffffffffffffffffffffffffffffffffffff169050919050565b60006104cc82610658565b90508073ffffffffffffffffffffffffffffffffffffffff168373ffffffffffffffffffffffffffffffffffffffff160361053c576040517f08c379a000000000000000000000000000000000000000000000000000000000815260040161053390612122565b60405180910390fd5b8073ffffffffffffffffffffffffffffffffffffffff1661055b610c00565b73ffffffffffffffffffffffffffffffffffffffff16148061058a575061058981610584610c00565b610ab7565b5b6105c9576040517f08c379a00000000000000000000000000000000000000000000000000000000081526004016105c0906121b4565b60405180910390fd5b6105d38383610c08565b505050565b6105e96105e3610c00565b82610cc1565b610628576040517f08c379a000000000000000000000000000000000000000000000000000000000815260040161061f90612246565b60405180910390fd5b610633838383610d56565b505050565b6106538383836040518060200160405280600081525061083d565b505050565b6000806106648361104f565b9050600073ffffffffffffffffffffffffffffffffffffffff168173ffffffffffffffffffffffffffffffffffffffff16036106d5576040517f08c379a00000000000000000000000000000000000000000000000000000000081526004016106cc906122b2565b60405180910390fd5b80915050919050565b60008073ffffffffffffffffffffffffffffffffffffffff168273ffffffffffffffffffffffffffffffffffffffff160361074e576040517f08c379a000000000000000000000000000000000000000000000000000000000815260040161074590612344565b60405180910390fd5b600360008373ffffffffffffffffffffffffffffffffffffffff1673ffffffffffffffffffffffffffffffffffffffff168152602001908152602001600020549050919050565b6060600180546107a49061207f565b80601f01602080910402602001604051908101604052809291908181526020018280546107d09061207f565b801561081d5780601f106107f25761010080835404028352916020019161081d565b820191906000526020600020905b81548152906001019060200180831161080057829003601f168201915b5050505050905090565b610839610832610c00565b838361108c565b5050565b61084e610848610c00565b83610cc1565b61088d576040517f08c379a000000000000000000000000000000000000000000000000000000000815260040161088490612246565b60405180910390fd5b610899848484846111f8565b50505050565b60606108aa82610bb5565b60006006600084815260200190815260200160002080546108ca9061207f565b80601f01602080910402602001604051908101604052809291908181526020018280546108f69061207f565b80156109435780601f1061091857610100808354040283529160200191610943565b820191906000526020600020905b81548152906001019060200180831161092657829003601f168201915b505050505090506000610954611254565b905060008151036109695781925050506109ac565b60008251111561099e5780826040516020016109869291906123a0565b604051602081830303815290604052925050506109ac565b6109a78461126b565b925050505b919050565b6000600860009054906101000a900473ffffffffffffffffffffffffffffffffffffffff1673ffffffffffffffffffffffffffffffffffffffff166109f4610c00565b73ffffffffffffffffffffffffffffffffffffffff1614610a4a576040517f08c379a0000000000000000000000000000000000000000000000000000000008152600401610a4190612410565b60405180910390fd5b6000610a5660076112d3565b9050610a6284826112e1565b610a6c81846114fe565b610a76600761156b565b7fe903a199fec434f5d8c09e91a6a3f83035849a251f48320deed3b3c225071e6881604051610aa59190611cd4565b60405180910390a18091505092915050565b6000600560008473ffffffffffffffffffffffffffffffffffffffff1673ffffffffffffffffffffffffffffffffffffffff16815260200190815260200160002060008373ffffffffffffffffffffffffffffffffffffffff1673ffffffffffffffffffffffffffffffffffffffff16815260200190815260200160002060009054906101000a900460ff16905092915050565b60007f01ffc9a7000000000000000000000000000000000000000000000000000000007bffffffffffffffffffffffffffffffffffffffffffffffffffffffff1916827bffffffffffffffffffffffffffffffffffffffffffffffffffffffff1916149050919050565b610bbe81611581565b610bfd576040517f08c379a0000000000000000000000000000000000000000000000000000000008152600401610bf4906122b2565b60405180910390fd5b50565b600033905090565b816004600083815260200190815260200160002060006101000a81548173ffffffffffffffffffffffffffffffffffffffff021916908373ffffffffffffffffffffffffffffffffffffffff160217905550808273ffffffffffffffffffffffffffffffffffffffff16610c7b83610658565b73ffffffffffffffffffffffffffffffffffffffff167f8c5be1e5ebec7d5bd14f71427d1e84f3dd0314c0f7b2291e5b200ac8c7c3b92560405160405180910390a45050565b600080610ccd83610658565b90508073ffffffffffffffffffffffffffffffffffffffff168473ffffffffffffffffffffffffffffffffffffffff161480610d0f5750610d0e8185610ab7565b5b80610d4d57508373ffffffffffffffffffffffffffffffffffffffff16610d358461047b565b73ffffffffffffffffffffffffffffffffffffffff16145b91505092915050565b8273ffffffffffffffffffffffffffffffffffffffff16610d7682610658565b73ffffffffffffffffffffffffffffffffffffffff1614610dcc576040517f08c379a0000000000000000000000000000000000000000000000000000000008152600401610dc3906124a2565b60405180910390fd5b600073ffffffffffffffffffffffffffffffffffffffff168273ffffffffffffffffffffffffffffffffffffffff1603610e3b576040517f08c379a0000000000000000000000000000000000000000000000000000000008152600401610e3290612534565b60405180910390fd5b610e4883838360016115c2565b8273ffffffffffffffffffffffffffffffffffffffff16610e6882610658565b73ffffffffffffffffffffffffffffffffffffffff1614610ebe576040517f08c379a0000000000000000000000000000000000000000000000000000000008152600401610eb5906124a2565b60405180910390fd5b6004600082815260200190815260200160002060006101000a81549073ffffffffffffffffffffffffffffffffffffffff02191690556001600360008573ffffffffffffffffffffffffffffffffffffffff1673ffffffffffffffffffffffffffffffffffffffff168152602001908152602001600020600082825403925050819055506001600360008473ffffffffffffffffffffffffffffffffffffffff1673ffffffffffffffffffffffffffffffffffffffff16815260200190815260200160002060008282540192505081905550816002600083815260200190815260200160002060006101000a81548173ffffffffffffffffffffffffffffffffffffffff021916908373ffffffffffffffffffffffffffffffffffffffff160217905550808273ffffffffffffffffffffffffffffffffffffffff168473ffffffffffffffffffffffffffffffffffffffff167fddf252ad1be2c89b69c2b068fc378daa952ba7f163c4a11628f55a4df523b3ef60405160405180910390a461104a83838360016115c8565b505050565b60006002600083815260200190815260200160002060009054906101000a900473ffffffffffffffffffffffffffffffffffffffff169050919050565b8173ffffffffffffffffffffffffffffffffffffffff168373ffffffffffffffffffffffffffffffffffffffff16036110fa576040517f08c379a00000000000000000000000000000000000000000000000000000000081526004016110f1906125a0565b60405180910390fd5b80600560008573ffffffffffffffffffffffffffffffffffffffff1673ffffffffffffffffffffffffffffffffffffffff16815260200190815260200160002060008473ffffffffffffffffffffffffffffffffffffffff1673ffffffffffffffffffffffffffffffffffffffff16815260200190815260200160002060006101000a81548160ff0219169083151502179055508173ffffffffffffffffffffffffffffffffffffffff168373ffffffffffffffffffffffffffffffffffffffff167f17307eab39ab6107e8899845ad3d59bd9653f200f220920489ca2b5937696c31836040516111eb9190611a4d565b60405180910390a3505050565b611203848484610d56565b61120f848484846115ce565b61124e576040517f08c379a000000000000000000000000000000000000000000000000000000000815260040161124590612632565b60405180910390fd5b50505050565b606060405180602001604052806000815250905090565b606061127682610bb5565b6000611280611254565b905060008151116112a057604051806020016040528060008152506112cb565b806112aa84611755565b6040516020016112bb9291906123a0565b6040516020818303038152906040525b915050919050565b600081600001549050919050565b600073ffffffffffffffffffffffffffffffffffffffff168273ffffffffffffffffffffffffffffffffffffffff1603611350576040517f08c379a00000000000000000000000000000000000000000000000000000000081526004016113479061269e565b60405180910390fd5b61135981611581565b15611399576040517f08c379a00000000000000000000000000000000000000000000000000000000081526004016113909061270a565b60405180910390fd5b6113a76000838360016115c2565b6113b081611581565b156113f0576040517f08c379a00000000000000000000000000000000000000000000000000000000081526004016113e79061270a565b60405180910390fd5b6001600360008473ffffffffffffffffffffffffffffffffffffffff1673ffffffffffffffffffffffffffffffffffffffff16815260200190815260200160002060008282540192505081905550816002600083815260200190815260200160002060006101000a81548173ffffffffffffffffffffffffffffffffffffffff021916908373ffffffffffffffffffffffffffffffffffffffff160217905550808273ffffffffffffffffffffffffffffffffffffffff16600073ffffffffffffffffffffffffffffffffffffffff167fddf252ad1be2c89b69c2b068fc378daa952ba7f163c4a11628f55a4df523b3ef60405160405180910390a46114fa6000838360016115c8565b5050565b61150782611581565b611546576040517f08c379a000000000000000000000000000000000000000000000000000000000815260040161153d9061279c565b60405180910390fd5b806006600084815260200190815260200160002090816115669190612968565b505050565b6001816000016000828254019250508190555050565b60008073ffffffffffffffffffffffffffffffffffffffff166115a38361104f565b73ffffffffffffffffffffffffffffffffffffffff1614159050919050565b50505050565b50505050565b60006115ef8473ffffffffffffffffffffffffffffffffffffffff16611823565b15611748578373ffffffffffffffffffffffffffffffffffffffff1663150b7a02611618610c00565b8786866040518563ffffffff1660e01b815260040161163a9493929190612a8f565b6020604051808303816000875af192505050801561167657506040513d601f19601f820116820180604052508101906116739190612af0565b60015b6116f8573d80600081146116a6576040519150601f19603f3d011682016040523d82523d6000602084013e6116ab565b606091505b5060008151036116f0576040517f08c379a00000000000000000000000000000000000000000000000000000000081526004016116e790612632565b60405180910390fd5b805181602001fd5b63150b7a0260e01b7bffffffffffffffffffffffffffffffffffffffffffffffffffffffff1916817bffffffffffffffffffffffffffffffffffffffffffffffffffffffff19161491505061174d565b600190505b949350505050565b60606000600161176484611846565b01905060008167ffffffffffffffff81111561178357611782611d65565b5b6040519080825280601f01601f1916602001820160405280156117b55781602001600182028036833780820191505090505b509050600082602001820190505b600115611818578080600190039150507f3031323334353637383961626364656600000000000000000000000000000000600a86061a8153600a858161180c5761180b612b1d565b5b049450600085036117c3575b819350505050919050565b6000808273ffffffffffffffffffffffffffffffffffffffff163b119050919050565b600080600090507a184f03e93ff9f4daa797ed6e38ed64bf6a1f01000000000000000083106118a4577a184f03e93ff9f4daa797ed6e38ed64bf6a1f010000000000000000838161189a57611899612b1d565b5b0492506040810190505b6d04ee2d6d415b85acef810000000083106118e1576d04ee2d6d415b85acef810000000083816118d7576118d6612b1d565b5b0492506020810190505b662386f26fc10000831061191057662386f26fc10000838161190657611905612b1d565b5b0492506010810190505b6305f5e1008310611939576305f5e100838161192f5761192e612b1d565b5b0492506008810190505b612710831061195e57612710838161195457611953612b1d565b5b0492506004810190505b60648310611981576064838161197757611976612b1d565b5b0492506002810190505b600a8310611990576001810190505b80915050919050565b6000604051905090565b600080fd5b600080fd5b60007fffffffff0000000000000000000000000000000000000000000000000000000082169050919050565b6119e2816119ad565b81146119ed57600080fd5b50565b6000813590506119ff816119d9565b92915050565b600060208284031215611a1b57611a1a6119a3565b5b6000611a29848285016119f0565b91505092915050565b60008115159050919050565b611a4781611a32565b82525050565b6000602082019050611a626000830184611a3e565b92915050565b600081519050919050565b600082825260208201905092915050565b60005b83811015611aa2578082015181840152602081019050611a87565b60008484015250505050565b6000601f19601f8301169050919050565b6000611aca82611a68565b611ad48185611a73565b9350611ae4818560208601611a84565b611aed81611aae565b840191505092915050565b60006020820190508181036000830152611b128184611abf565b905092915050565b6000819050919050565b611b2d81611b1a565b8114611b3857600080fd5b50565b600081359050611b4a81611b24565b92915050565b600060208284031215611b6657611b656119a3565b5b6000611b7484828501611b3b565b91505092915050565b600073ffffffffffffffffffffffffffffffffffffffff82169050919050565b6000611ba882611b7d565b9050919050565b611bb881611b9d565b82525050565b6000602082019050611bd36000830184611baf565b92915050565b611be281611b9d565b8114611bed57600080fd5b50565b600081359050611bff81611bd9565b92915050565b60008060408385031215611c1c57611c1b6119a3565b5b6000611c2a85828601611bf0565b9250506020611c3b85828601611b3b565b9150509250929050565b600080600060608486031215611c5e57611c5d6119a3565b5b6000611c6c86828701611bf0565b9350506020611c7d86828701611bf0565b9250506040611c8e86828701611b3b565b9150509250925092565b600060208284031215611cae57611cad6119a3565b5b6000611cbc84828501611bf0565b91505092915050565b611cce81611b1a565b82525050565b6000602082019050611ce96000830184611cc5565b92915050565b611cf881611a32565b8114611d0357600080fd5b50565b600081359050611d1581611cef565b92915050565b60008060408385031215611d3257611d316119a3565b5b6000611d4085828601611bf0565b9250506020611d5185828601611d06565b9150509250929050565b600080fd5b600080fd5b7f4e487b7100000000000000000000000000000000000000000000000000000000600052604160045260246000fd5b611d9d82611aae565b810181811067ffffffffffffffff82111715611dbc57611dbb611d65565b5b80604052505050565b6000611dcf611999565b9050611ddb8282611d94565b919050565b600067ffffffffffffffff821115611dfb57611dfa611d65565b5b611e0482611aae565b9050602081019050919050565b82818337600083830152505050565b6000611e33611e2e84611de0565b611dc5565b905082815260208101848484011115611e4f57611e4e611d60565b5b611e5a848285611e11565b509392505050565b600082601f830112611e7757611e76611d5b565b5b8135611e87848260208601611e20565b91505092915050565b60008060008060808587031215611eaa57611ea96119a3565b5b6000611eb887828801611bf0565b9450506020611ec987828801611bf0565b9350506040611eda87828801611b3b565b925050606085013567ffffffffffffffff811115611efb57611efa6119a8565b5b611f0787828801611e62565b91505092959194509250565b600067ffffffffffffffff821115611f2e57611f2d611d65565b5b611f3782611aae565b9050602081019050919050565b6000611f57611f5284611f13565b611dc5565b905082815260208101848484011115611f7357611f72611d60565b5b611f7e848285611e11565b509392505050565b600082601f830112611f9b57611f9a611d5b565b5b8135611fab848260208601611f44565b91505092915050565b60008060408385031215611fcb57611fca6119a3565b5b6000611fd985828601611bf0565b925050602083013567ffffffffffffffff811115611ffa57611ff96119a8565b5b61200685828601611f86565b9150509250929050565b60008060408385031215612027576120266119a3565b5b600061203585828601611bf0565b925050602061204685828601611bf0565b9150509250929050565b7f4e487b7100000000000000000000000000000000000000000000000000000000600052602260045260246000fd5b6000600282049050600182168061209757607f821691505b6020821081036120aa576120a9612050565b5b50919050565b7f4552433732313a20617070726f76616c20746f2063757272656e74206f776e6560008201527f7200000000000000000000000000000000000000000000000000000000000000602082015250565b600061210c602183611a73565b9150612117826120b0565b604082019050919050565b6000602082019050818103600083015261213b816120ff565b9050919050565b7f4552433732313a20617070726f76652063616c6c6572206973206e6f7420746f60008201527f6b656e206f776e6572206f7220617070726f76656420666f7220616c6c000000602082015250565b600061219e603d83611a73565b91506121a982612142565b604082019050919050565b600060208201905081810360008301526121cd81612191565b9050919050565b7f4552433732313a2063616c6c6572206973206e6f7420746f6b656e206f776e6560008201527f72206f7220617070726f76656400000000000000000000000000000000000000602082015250565b6000612230602d83611a73565b915061223b826121d4565b604082019050919050565b6000602082019050818103600083015261225f81612223565b9050919050565b7f4552433732313a20696e76616c696420746f6b656e2049440000000000000000600082015250565b600061229c601883611a73565b91506122a782612266565b602082019050919050565b600060208201905081810360008301526122cb8161228f565b9050919050565b7f4552433732313a2061646472657373207a65726f206973206e6f74206120766160008201527f6c6964206f776e65720000000000000000000000000000000000000000000000602082015250565b600061232e602983611a73565b9150612339826122d2565b604082019050919050565b6000602082019050818103600083015261235d81612321565b9050919050565b600081905092915050565b600061237a82611a68565b6123848185612364565b9350612394818560208601611a84565b80840191505092915050565b60006123ac828561236f565b91506123b8828461236f565b91508190509392505050565b7f4a4e46543a204f4e4c59204f574e45522043414e204d494e5400000000000000600082015250565b60006123fa601983611a73565b9150612405826123c4565b602082019050919050565b60006020820190508181036000830152612429816123ed565b9050919050565b7f4552433732313a207472616e736665722066726f6d20696e636f72726563742060008201527f6f776e6572000000000000000000000000000000000000000000000000000000602082015250565b600061248c602583611a73565b915061249782612430565b604082019050919050565b600060208201905081810360008301526124bb8161247f565b9050919050565b7f4552433732313a207472616e7366657220746f20746865207a65726f2061646460008201527f7265737300000000000000000000000000000000000000000000000000000000602082015250565b600061251e602483611a73565b9150612529826124c2565b604082019050919050565b6000602082019050818103600083015261254d81612511565b9050919050565b7f4552433732313a20617070726f766520746f2063616c6c657200000000000000600082015250565b600061258a601983611a73565b915061259582612554565b602082019050919050565b600060208201905081810360008301526125b98161257d565b9050919050565b7f4552433732313a207472616e7366657220746f206e6f6e20455243373231526560008201527f63656976657220696d706c656d656e7465720000000000000000000000000000602082015250565b600061261c603283611a73565b9150612627826125c0565b604082019050919050565b6000602082019050818103600083015261264b8161260f565b9050919050565b7f4552433732313a206d696e7420746f20746865207a65726f2061646472657373600082015250565b6000612688602083611a73565b915061269382612652565b602082019050919050565b600060208201905081810360008301526126b78161267b565b9050919050565b7f4552433732313a20746f6b656e20616c7265616479206d696e74656400000000600082015250565b60006126f4601c83611a73565b91506126ff826126be565b602082019050919050565b60006020820190508181036000830152612723816126e7565b9050919050565b7f45524337323155524953746f726167653a2055524920736574206f66206e6f6e60008201527f6578697374656e7420746f6b656e000000000000000000000000000000000000602082015250565b6000612786602e83611a73565b91506127918261272a565b604082019050919050565b600060208201905081810360008301526127b581612779565b9050919050565b60008190508160005260206000209050919050565b60006020601f8301049050919050565b600082821b905092915050565b60006008830261281e7fffffffffffffffffffffffffffffffffffffffffffffffffffffffffffffffff826127e1565b61282886836127e1565b95508019841693508086168417925050509392505050565b6000819050919050565b600061286561286061285b84611b1a565b612840565b611b1a565b9050919050565b6000819050919050565b61287f8361284a565b61289361288b8261286c565b8484546127ee565b825550505050565b600090565b6128a861289b565b6128b3818484612876565b505050565b5b818110156128d7576128cc6000826128a0565b6001810190506128b9565b5050565b601f82111561291c576128ed816127bc565b6128f6846127d1565b81016020851015612905578190505b612919612911856127d1565b8301826128b8565b50505b505050565b600082821c905092915050565b600061293f60001984600802612921565b1980831691505092915050565b6000612958838361292e565b9150826002028217905092915050565b61297182611a68565b67ffffffffffffffff81111561298a57612989611d65565b5b612994825461207f565b61299f8282856128db565b600060209050601f8311600181146129d257600084156129c0578287015190505b6129ca858261294c565b865550612a32565b601f1984166129e0866127bc565b60005b82811015612a08578489015182556001820191506020850194506020810190506129e3565b86831015612a255784890151612a21601f89168261292e565b8355505b6001600288020188555050505b505050505050565b600081519050919050565b600082825260208201905092915050565b6000612a6182612a3a565b612a6b8185612a45565b9350612a7b818560208601611a84565b612a8481611aae565b840191505092915050565b6000608082019050612aa46000830187611baf565b612ab16020830186611baf565b612abe6040830185611cc5565b8181036060830152612ad08184612a56565b905095945050505050565b600081519050612aea816119d9565b92915050565b600060208284031215612b0657612b056119a3565b5b6000612b1484828501612adb565b91505092915050565b7f4e487b7100000000000000000000000000000000000000000000000000000000600052601260045260246000fdfea2646970667358221220c1d622ff056de378a793019b0736f3d366fb28f1ec49391f4c3d0a54e420f00264736f6c63430008120033",
  "linkReferences": {},
  "deployedLinkReferences": {}
}