{
  "_format": "hh-sol-artifact-1",
  "contractName": "Bank",
  "sourceName": "contracts/Bank.sol",
  "abi": [
    {
      "inputs": [
        {
          "internalType": "address",
          "name": "_token",
          "type": "address"
        }
      ],
      "stateMutability": "nonpayable",
      "type": "constructor"
    },
    {
      "inputs": [
        {
          "internalType": "address",
          "name": "user",
          "type": "address"
        },
        {
          "internalType": "uint256",
          "name": "amount",
          "type": "uint256"
        }
      ],
      "name": "deposit",
      "outputs": [],
      "stateMutability": "nonpayable",
      "type": "function"
    },
    {
      "inputs": [
        {
          "internalType": "address",
          "name": "",
          "type": "address"
        }
      ],
      "name": "deposited",
      "outputs": [
        {
          "internalType": "uint256",
          "name": "",
          "type": "uint256"
        }
      ],
      "stateMutability": "view",
      "type": "function"
    },
    {
      "inputs": [
        {
          "internalType": "address",
          "name": "user",
          "type": "address"
        },
        {
          "internalType": "uint256",
          "name": "amount",
          "type": "uint256"
        },
        {
          "internalType": "uint256",
          "name": "deadline",
          "type": "uint256"
        },
        {
          "internalType": "uint8",
          "name": "v",
          "type": "uint8"
        },
        {
          "internalType": "bytes32",
          "name": "r",
          "type": "bytes32"
        },
        {
          "internalType": "bytes32",
          "name": "s",
          "type": "bytes32"
        }
      ],
      "name": "permitDeposit",
      "outputs": [],
      "stateMutability": "nonpayable",
      "type": "function"
    },
    {
      "inputs": [],
      "name": "token",
      "outputs": [
        {
          "internalType": "address",
          "name": "",
          "type": "address"
        }
      ],
      "stateMutability": "view",
      "type": "function"
    },
    {
      "inputs": [
        {
          "internalType": "address",
          "name": "operator",
          "type": "address"
        },
        {
          "internalType": "address",
          "name": "from",
          "type": "address"
        },
        {
          "internalType": "address",
          "name": "to",
          "type": "address"
        },
        {
          "internalType": "uint256",
          "name": "amount",
          "type": "uint256"
        },
        {
          "internalType": "bytes",
          "name": "userData",
          "type": "bytes"
        },
        {
          "internalType": "bytes",
          "name": "operatorData",
          "type": "bytes"
        }
      ],
      "name": "tokensReceived",
      "outputs": [],
      "stateMutability": "nonpayable",
      "type": "function"
    },
    {
      "inputs": [
        {
          "internalType": "address",
          "name": "sender",
          "type": "address"
        },
        {
          "internalType": "uint256",
          "name": "amount",
          "type": "uint256"
        }
      ],
      "name": "tokensReceived",
      "outputs": [
        {
          "internalType": "bool",
          "name": "",
          "type": "bool"
        }
      ],
      "stateMutability": "nonpayable",
      "type": "function"
    },
    {
      "inputs": [],
      "name": "withdraw",
      "outputs": [],
      "stateMutability": "nonpayable",
      "type": "function"
    }
  ],
  "bytecode": "0x60a060405234801561001057600080fd5b50604051610e40380380610e40833981810160405281019061003291906100cf565b8073ffffffffffffffffffffffffffffffffffffffff1660808173ffffffffffffffffffffffffffffffffffffffff1681525050506100fc565b600080fd5b600073ffffffffffffffffffffffffffffffffffffffff82169050919050565b600061009c82610071565b9050919050565b6100ac81610091565b81146100b757600080fd5b50565b6000815190506100c9816100a3565b92915050565b6000602082840312156100e5576100e461006c565b5b60006100f3848285016100ba565b91505092915050565b608051610d0661013a6000396000818161015f0152818161024e0152818161033b0152818161045e0152818161059601526106570152610d066000f3fe608060405234801561001057600080fd5b506004361061007c5760003560e01c806347e7ef241161005b57806347e7ef24146100d75780638f7b1bca146100f3578063cb13cddb1461010f578063fc0c546a1461013f5761007c565b806223de291461008157806324a756d11461009d5780633ccfd60b146100cd575b600080fd5b61009b6004803603810190610096919061077c565b61015d565b005b6100b760048036038101906100b2919061084b565b61024a565b6040516100c491906108a6565b60405180910390f35b6100d5610339565b005b6100f160048036038101906100ec919061084b565b61045c565b005b61010d60048036038101906101089190610930565b610594565b005b610129600480360381019061012491906109bd565b61063d565b60405161013691906109f9565b60405180910390f35b610147610655565b6040516101549190610a23565b60405180910390f35b7f000000000000000000000000000000000000000000000000000000000000000073ffffffffffffffffffffffffffffffffffffffff163373ffffffffffffffffffffffffffffffffffffffff16146101eb576040517f08c379a00000000000000000000000000000000000000000000000000000000081526004016101e290610a9b565b60405180910390fd5b846000808973ffffffffffffffffffffffffffffffffffffffff1673ffffffffffffffffffffffffffffffffffffffff16815260200190815260200160002060008282546102399190610aea565b925050819055505050505050505050565b60007f000000000000000000000000000000000000000000000000000000000000000073ffffffffffffffffffffffffffffffffffffffff163373ffffffffffffffffffffffffffffffffffffffff16146102da576040517f08c379a00000000000000000000000000000000000000000000000000000000081526004016102d190610a9b565b60405180910390fd5b816000808573ffffffffffffffffffffffffffffffffffffffff1673ffffffffffffffffffffffffffffffffffffffff16815260200190815260200160002060008282546103289190610aea565b925050819055506001905092915050565b7f000000000000000000000000000000000000000000000000000000000000000073ffffffffffffffffffffffffffffffffffffffff1663a9059cbb336000803373ffffffffffffffffffffffffffffffffffffffff1673ffffffffffffffffffffffffffffffffffffffff168152602001908152602001600020546040518363ffffffff1660e01b81526004016103d2929190610b1e565b6020604051808303816000875af11580156103f1573d6000803e3d6000fd5b505050506040513d601f19601f820116820180604052508101906104159190610b73565b5060008060003373ffffffffffffffffffffffffffffffffffffffff1673ffffffffffffffffffffffffffffffffffffffff16815260200190815260200160002081905550565b7f000000000000000000000000000000000000000000000000000000000000000073ffffffffffffffffffffffffffffffffffffffff166323b872dd3330846040518463ffffffff1660e01b81526004016104b993929190610ba0565b6020604051808303816000875af11580156104d8573d6000803e3d6000fd5b505050506040513d601f19601f820116820180604052508101906104fc9190610b73565b61053b576040517f08c379a000000000000000000000000000000000000000000000000000000000815260040161053290610c23565b60405180910390fd5b806000808473ffffffffffffffffffffffffffffffffffffffff1673ffffffffffffffffffffffffffffffffffffffff16815260200190815260200160002060008282546105899190610aea565b925050819055505050565b7f000000000000000000000000000000000000000000000000000000000000000073ffffffffffffffffffffffffffffffffffffffff1663d505accf333088888888886040518863ffffffff1660e01b81526004016105f99796959493929190610c61565b600060405180830381600087803b15801561061357600080fd5b505af1158015610627573d6000803e3d6000fd5b50505050610635868661045c565b505050505050565b60006020528060005260406000206000915090505481565b7f000000000000000000000000000000000000000000000000000000000000000081565b600080fd5b600080fd5b600073ffffffffffffffffffffffffffffffffffffffff82169050919050565b60006106ae82610683565b9050919050565b6106be816106a3565b81146106c957600080fd5b50565b6000813590506106db816106b5565b92915050565b6000819050919050565b6106f4816106e1565b81146106ff57600080fd5b50565b600081359050610711816106eb565b92915050565b600080fd5b600080fd5b600080fd5b60008083601f84011261073c5761073b610717565b5b8235905067ffffffffffffffff8111156107595761075861071c565b5b60208301915083600182028301111561077557610774610721565b5b9250929050565b60008060008060008060008060c0898b03121561079c5761079b610679565b5b60006107aa8b828c016106cc565b98505060206107bb8b828c016106cc565b97505060406107cc8b828c016106cc565b96505060606107dd8b828c01610702565b955050608089013567ffffffffffffffff8111156107fe576107fd61067e565b5b61080a8b828c01610726565b945094505060a089013567ffffffffffffffff81111561082d5761082c61067e565b5b6108398b828c01610726565b92509250509295985092959890939650565b6000806040838503121561086257610861610679565b5b6000610870858286016106cc565b925050602061088185828601610702565b9150509250929050565b60008115159050919050565b6108a08161088b565b82525050565b60006020820190506108bb6000830184610897565b92915050565b600060ff82169050919050565b6108d7816108c1565b81146108e257600080fd5b50565b6000813590506108f4816108ce565b92915050565b6000819050919050565b61090d816108fa565b811461091857600080fd5b50565b60008135905061092a81610904565b92915050565b60008060008060008060c0878903121561094d5761094c610679565b5b600061095b89828a016106cc565b965050602061096c89828a01610702565b955050604061097d89828a01610702565b945050606061098e89828a016108e5565b935050608061099f89828a0161091b565b92505060a06109b089828a0161091b565b9150509295509295509295565b6000602082840312156109d3576109d2610679565b5b60006109e1848285016106cc565b91505092915050565b6109f3816106e1565b82525050565b6000602082019050610a0e60008301846109ea565b92915050565b610a1d816106a3565b82525050565b6000602082019050610a386000830184610a14565b92915050565b600082825260208201905092915050565b7f696e76616c696400000000000000000000000000000000000000000000000000600082015250565b6000610a85600783610a3e565b9150610a9082610a4f565b602082019050919050565b60006020820190508181036000830152610ab481610a78565b9050919050565b7f4e487b7100000000000000000000000000000000000000000000000000000000600052601160045260246000fd5b6000610af5826106e1565b9150610b00836106e1565b9250828201905080821115610b1857610b17610abb565b5b92915050565b6000604082019050610b336000830185610a14565b610b4060208301846109ea565b9392505050565b610b508161088b565b8114610b5b57600080fd5b50565b600081519050610b6d81610b47565b92915050565b600060208284031215610b8957610b88610679565b5b6000610b9784828501610b5e565b91505092915050565b6000606082019050610bb56000830186610a14565b610bc26020830185610a14565b610bcf60408301846109ea565b949350505050565b7f5472616e736665722066726f6d206572726f7200000000000000000000000000600082015250565b6000610c0d601383610a3e565b9150610c1882610bd7565b602082019050919050565b60006020820190508181036000830152610c3c81610c00565b9050919050565b610c4c816108c1565b82525050565b610c5b816108fa565b82525050565b600060e082019050610c76600083018a610a14565b610c836020830189610a14565b610c9060408301886109ea565b610c9d60608301876109ea565b610caa6080830186610c43565b610cb760a0830185610c52565b610cc460c0830184610c52565b9897505050505050505056fea2646970667358221220351dac49be37ee8dc370787009511d1e947d424fe857ad9db58c33c41cf42eeb64736f6c63430008120033",
  "linkReferences": {},
  "deployedLinkReferences": {}
}